:020000040800F2
:10000000005000208D4D0008814B0008834B0008F4
:10001000854B0008874B0008894B00080000000052
:100020000000000000000000000000008B4B0008F2
:100030008D4B0008000000008F4B0008914B00081A
:10004000D54D0008D54D0008D54D0008D54D000808
:10005000D54D0008D54D0008D54D0008D54D0008F8
:10006000D54D0008D54D0008D54D0008D54D0008E8
:10007000D54D0008D54D0008D54D0008D54D0008D8
:10008000D54D0008D54D0008D54D0008D54D0008C8
:10009000D54D0008D54D0008D54D0008D54D0008B8
:1000A000D54D0008D54D0008D54D0008D54D0008A8
:1000B000D54D0008994B0008D54D0008D54D0008D6
:1000C000D54D0008D54D0008D54D0008D54D000888
:1000D000D54D0008D54D0008D54D0008D54D000878
:1000E000D54D0008D54D0008D54D00080000000092
:1000F0000000000000000000000000000000000000
:0C01000000000000000000005FF808F1A3
:1001100010B5054C237833B9044B13B10448AFF341
:1001200000800123237010BDEC01002000000000BE
:10013000047B000808B5034B1BB103490348AFF328
:10014000008008BD00000000F0010020047B0008D2
:1001500081F0004102E000BF83F0004330B54FEA78
:1001600041044FEA430594EA050F08BF90EA020FE5
:100170001FBF54EA000C55EA020C7FEA645C7FEA78
:10018000655C00F0E2804FEA5454D4EB5555B8BF9B
:100190006D420CDD2C4480EA020281EA030382EA0C
:1001A000000083EA010180EA020281EA0303362D9E
:1001B00088BF30BD11F0004F4FEA01314FF4801C71
:1001C0004CEA113102D0404261EB410113F0004F83
:1001D0004FEA03334CEA133302D0524263EB43033A
:1001E00094EA050F00F0A780A4F10104D5F1200ED8
:1001F0000DDB02FA0EFC22FA05F2801841F1000133
:1002000003FA0EF2801843FA05F359410EE0A5F106
:1002100020050EF1200E012A03FA0EFC28BF4CF037
:10022000020C43FA05F3C01851EBE37101F00045ED
:1002300007D54FF0000EDCF1000C7EEB00006EEBFA
:100240000101B1F5801F1BD3B1F5001F0CD3490884
:100250005FEA30004FEA3C0C04F101044FEA4452DB
:1002600012F5800F80F09A80BCF1004F08BF5FEA62
:10027000500C50F1000041EB045141EA050130BD42
:100280005FEA4C0C404141EB010111F4801FA4F1E5
:100290000104E9D191F0000F04BF01460020B1FA3A
:1002A00081F308BF2033A3F10B03B3F120020CDA72
:1002B0000C3208DD02F1140CC2F10C0201FA0CF050
:1002C00021FA02F10CE002F11402D8BFC2F1200CB5
:1002D00001FA02F120FA0CFCDCBF41EA0C0190406B
:1002E000E41AA2BF01EB0451294330BD6FEA0404B4
:1002F0001F3C1CDA0C340EDC04F11404C4F120029F
:1003000020FA04F001FA02F340EA030021FA04F3B0
:1003100045EA030130BDC4F10C04C4F1200220FA07
:1003200002F001FA04F340EA0300294630BD21FA45
:1003300004F0294630BD94F0000F83F4801306BF0B
:1003400081F480110134013D4EE77FEA645C18BFFF
:100350007FEA655C29D094EA050F08BF90EA020F96
:1003600005D054EA000C04BF1946104630BD91EA8E
:10037000030F1EBF0021002030BD5FEA545C05D191
:100380004000494128BF41F0004130BD14F58004D0
:100390003CBF01F5801130BD01F0004545F0FE4144
:1003A00041F470014FF0000030BD7FEA645C1ABF79
:1003B000194610467FEA655C1CBF0B46024650EAB0
:1003C000013406BF52EA033591EA030F41F40021DC
:1003D00030BD00BF90F0000F04BF0021704730B562
:1003E0004FF4806404F132044FF000054FF0000137
:1003F00050E700BF90F0000F04BF0021704730B5F8
:100400004FF4806404F1320410F0004548BF4042CC
:100410004FF000013EE700BF42004FEAE2014FEA21
:1004200031014FEA02701FBF12F07F4393F07F4FFC
:1004300081F06051704732F07F4208BF704793F0FF
:100440007F4F04BF41F40021704730B54FF4607412
:1004500001F0004521F000411CE700BF50EA010215
:1004600008BF704730B54FF000050AE050EA0102BE
:1004700008BF704730B511F0004502D5404261EB2E
:1004800041014FF4806404F132045FEA915C3FF46F
:10049000D8AE4FF003025FEADC0C18BF03325FEA0C
:1004A000DC0C18BF033202EBDC02C2F1200300FABD
:1004B00003FC20FA02F001FA03FE40EA0E0021FAE2
:1004C00002F11444BDE600BF70B54FF0FF0C4CF4D0
:1004D000E06C1CEA11541DBF1CEA135594EA0C0F82
:1004E00095EA0C0F00F0DEF82C4481EA030621EABD
:1004F0004C5123EA4C5350EA013518BF52EA0335F8
:1005000041F4801143F4801338D0A0FB02CE4FF0A9
:100510000005E1FB02E506F00042E0FB03E54FF0D9
:100520000006E1FB03569CF0000F18BF4EF0010ED1
:10053000A4F1FF04B6F5007F64F5407404D25FEACD
:100540004E0E6D4146EB060642EAC62141EA555180
:100550004FEAC52040EA5E504FEACE2EB4F1FD0CC2
:1005600088BFBCF5E06F1ED8BEF1004F08BF5FEA40
:10057000500E50F1000041EB045170BD06F00046F2
:1005800046EA010140EA020081EA0301B4EB5C049F
:10059000C2BFD4EB0C0541EA045170BD41F4801197
:1005A0004FF0000E013C00F3AB8014F1360FDEBFBC
:1005B000002001F0004170BDC4F10004203C35DA98
:1005C0000C341BDC04F11404C4F1200500FA05F31B
:1005D00020FA04F001FA05F240EA020001F00042BC
:1005E00021F0004110EBD37021FA04F642EB060132
:1005F0005EEA430E08BF20EAD37070BDC4F10C045C
:10060000C4F1200500FA04F320FA05F001FA04F21F
:1006100040EA020001F0004110EBD37041F100010B
:100620005EEA430E08BF20EAD37070BDC4F1200516
:1006300000FA05F24EEA020E20FA04F301FA05F27E
:1006400043EA020321FA04F001F0004121FA04F226
:1006500020EA020000EBD3705EEA430E08BF20EAF6
:10066000D37070BD94F0000F0FD101F00046400030
:1006700041EB010111F4801F08BF013CF7D041EAB2
:10068000060195F0000F18BF704703F000465200B6
:1006900043EB030313F4801F08BF013DF7D043EA87
:1006A0000603704794EA0C0F0CEA135518BF95EA3D
:1006B0000C0F0CD050EA410618BF52EA4306D1D1C4
:1006C00081EA030101F000414FF0000070BD50EAE3
:1006D000410606BF1046194652EA430619D094EA6D
:1006E0000C0F02D150EA013613D195EA0C0F05D157
:1006F00052EA03361CBF104619460AD181EA0301AB
:1007000001F0004141F0FE4141F470014FF0000062
:1007100070BD41F0FE4141F4780170BD70B54FF0FD
:10072000FF0C4CF4E06C1CEA11541DBF1CEA13557D
:1007300094EA0C0F95EA0C0F00F0A7F8A4EB05045F
:1007400081EA030E52EA03354FEA013100F0888056
:100750004FEA03334FF0805545EA131343EA12631F
:100760004FEA022245EA111545EA10654FEA0026D4
:100770000EF000419D4208BF964244F1FD0404F58D
:10078000407402D25B084FEA3202B61A65EB0305E9
:100790005B084FEA32024FF480104FF4002CB6EBA6
:1007A000020E75EB030E22BFB61A754640EA0C0026
:1007B0005B084FEA3202B6EB020E75EB030E22BF66
:1007C000B61A754640EA5C005B084FEA3202B6EBA7
:1007D000020E75EB030E22BFB61A754640EA9C0066
:1007E0005B084FEA3202B6EB020E75EB030E22BF36
:1007F000B61A754640EADC0055EA060E18D04FEAF4
:10080000051545EA16754FEA06164FEAC30343EA93
:1008100052734FEAC2025FEA1C1CC0D111F4801F60
:100820000BD141EA00014FF000004FF0004CB6E759
:1008300011F4801F04BF01430020B4F1FD0C88BFF8
:10084000BCF5E06F3FF6AFAEB5EB030C04BFB6EB03
:10085000020C5FEA500C50F1000041EB045170BDF6
:100860000EF0004E4EEA113114EB5C04C2BFD4EB23
:100870000C0541EA045170BD41F480114FF0000EA7
:10088000013C90E645EA060E8DE60CEA135594EA23
:100890000C0F08BF95EA0C0F3FF43BAF94EA0C0F26
:1008A0000AD150EA01347FF434AF95EA0C0F7FF49B
:1008B00025AF104619462CE795EA0C0F06D152EAEF
:1008C00003353FF4FDAE1046194622E750EA4106D3
:1008D00018BF52EA43067FF4C5AE50EA41047FF4E4
:1008E0000DAF52EA43057FF4EBAE12E74FF0FF3C49
:1008F00006E000BF4FF0010C02E000BF4FF0010C1A
:100900004DF804CD4FEA410C7FEA6C5C4FEA430C92
:1009100018BF7FEA6C5C1BD001B050EA410C0CBFE1
:1009200052EA430C91EA030F02BF90EA020F002043
:10093000704710F1000F91EA030F58BF994208BFAA
:1009400090422CBFD8176FEAE37040F00100704767
:100950004FEA410C7FEA6C5C02D150EA013C07D1BE
:100960004FEA430C7FEA6C5CD6D152EA033CD3D009
:100970005DF8040B704700BF8446104662468C4603
:100980001946634600E000BF01B5FFF7B7FF002836
:1009900048BF10F1000F01BD4DF808EDFFF7F4FF5F
:1009A0000CBF012000205DF808FB00BF4DF808EDEA
:1009B000FFF7EAFF34BF012000205DF808FB00BF0D
:1009C0004DF808EDFFF7E0FF94BF012000205DF82F
:1009D00008FB00BF4DF808EDFFF7CEFF94BF0120E4
:1009E00000205DF808FB00BF4DF808EDFFF7C4FFDD
:1009F00034BF012000205DF808FB00BF4FEA410C26
:100A00007FEA6C5C02D150EA013C0AD14FEA430C08
:100A10007FEA6C5C02D152EA033C02D14FF0000045
:100A200070474FF0010070474FEA410212F5001283
:100A300015D211D56FF47873B3EB625212D94FEA25
:100A4000C12343F0004343EA505311F0004F23FA0F
:100A500002F018BF404270474FF00000704750EA64
:100A6000013005D111F0004008BF6FF00040704721
:100A70004FF00000704700BF4FEA4102B2F1E0437F
:100A800024BFB3F5001CDCF1FE5C0DD901F0004C75
:100A90004FEAC0024CEA5070B2F1004F40EB8300C5
:100AA00008BF20F00100704711F0804F21D113F1F1
:100AB0003872BCBF01F00040704741F480114FEA2A
:100AC0005252C2F11802C2F1200C10FA0CF320FAB3
:100AD00002F018BF40F001004FEAC1234FEAD323D0
:100AE00003FA0CFC40EA0C0023FA02F34FEA43033A
:100AF000CCE77FEA625307D150EA01331EBF4FF0C3
:100B0000FE4040F44000704701F0004040F0FE40DD
:100B100040F40000704700BF80F0004002E000BFDA
:100B200081F0004142001FBF5FEA410392EA030FD8
:100B30007FEA226C7FEA236C6AD04FEA1262D2EB22
:100B40001363C1BFD218414048404140B8BF5B4227
:100B5000192B88BF704710F0004F40F4000020F0C0
:100B60007F4018BF404211F0004F41F4000121F0D6
:100B70007F4118BF494292EA030F3FD0A2F1010220
:100B800041FA03FC10EB0C00C3F1200301FA03F15E
:100B900000F0004302D5494260EB4000B0F5000F81
:100BA00013D3B0F1807F06D340084FEA310102F140
:100BB0000102FE2A51D2B1F1004F40EBC25008BFF2
:100BC00020F0010040EA03007047490040EB0000BC
:100BD00010F4000FA2F10102EDD1B0FA80FCACF1EB
:100BE000080CB2EB0C0200FA0CF0AABF00EBC250EA
:100BF00052421843BCBFD0401843704792F0000FD8
:100C000081F4000106BF80F400000132013BB5E72A
:100C10004FEA41037FEA226C18BF7FEA236C21D0A0
:100C200092EA030F04D092F0000F08BF0846704705
:100C300090EA010F1CBF0020704712F07F4F04D1D3
:100C4000400028BF40F00040704712F100723CBFE6
:100C500000F50000704700F0004343F0FE4040F410
:100C6000000070477FEA226216BF08467FEA2363CE
:100C70000146420206BF5FEA412390EA010F40F4B9
:100C8000800070474FF0000304E000BF10F0004305
:100C900048BF40425FEA000C08BF704743F09643EC
:100CA00001464FF000001CE050EA010208BF704707
:100CB0004FF000030AE000BF50EA010208BF70478E
:100CC00011F0004302D5404261EB41015FEA010CA3
:100CD00002BF84460146002043F0B64308BFA3F19B
:100CE0008053A3F50003BCFA8CF2083AA3EBC2537D
:100CF00010DB01FA02FC634400FA02FCC2F120029C
:100D0000BCF1004F20FA02F243EB020008BF20F0D2
:100D10000100704702F1200201FA02FCC2F1200238
:100D200050EA4C0021FA02F243EB020008BF20EA2D
:100D3000DC7070474FF0FF0C1CEAD0521EBF1CEA5B
:100D4000D15392EA0C0F93EA0C0F6FD01A4480EA49
:100D5000010C400218BF5FEA41211ED04FF0006332
:100D600043EA501043EA5111A0FB01310CF000405E
:100D7000B1F5000F3EBF490041EAD3715B0040EA84
:100D8000010062F17F02FD2A1DD8B3F1004F40EB54
:100D9000C25008BF20F00100704790F0000F0CF027
:100DA000004C08BF49024CEA502040EA51207F3AEB
:100DB000C2BFD2F1FF0340EAC250704740F40000C6
:100DC0004FF00003013A5DDC12F1190FDCBF00F0B7
:100DD00000407047C2F10002410021FA02F1C2F165
:100DE000200200FA02FC5FEA310040F1000053EA01
:100DF0004C0308BF20EADC70704792F0000F00F04F
:100E0000004C02BF400010F4000F013AF9D040EA54
:100E10000C0093F0000F01F0004C02BF490011F4E8
:100E2000000F013BF9D041EA0C018FE70CEAD153E6
:100E300092EA0C0F18BF93EA0C0F0AD030F0004C66
:100E400018BF31F0004CD8D180EA010000F000401A
:100E5000704790F0000F17BF90F0004F084691F0D8
:100E6000000F91F0004F14D092EA0C0F01D1420212
:100E70000FD193EA0C0F03D14B0218BF084608D1DB
:100E800080EA010000F0004040F0FE4040F4000025
:100E9000704740F0FE4040F4400070474FF0FF0CB8
:100EA0001CEAD0521EBF1CEAD15392EA0C0F93EAFF
:100EB0000C0F69D0A2EB030280EA010C49024FEA51
:100EC000402037D04FF0805343EA111143EA10130A
:100ED0000CF000408B4238BF5B0042F17D024FF4C2
:100EE000000C8B4224BF5B1A40EA0C00B3EB510F9D
:100EF00024BFA3EB510340EA5C00B3EB910F24BF86
:100F0000A3EB910340EA9C00B3EBD10F24BFA3EB0A
:100F1000D10340EADC001B0118BF5FEA1C1CE0D1D2
:100F2000FD2A3FF650AF8B4240EBC25008BF20F085
:100F3000010070470CF0004C4CEA50207F32C2BFD9
:100F4000D2F1FF0340EAC250704740F400004FF076
:100F50000003013A37E792F0000F00F0004C02BFA7
:100F6000400010F4000F013AF9D040EA0C0093F071
:100F7000000F01F0004C02BF490011F4000F013BCB
:100F8000F9D041EA0C0195E70CEAD15392EA0C0F33
:100F900008D142027FF47DAF93EA0C0F7FF470AF6B
:100FA000084676E793EA0C0F04D14B023FF44CAFAE
:100FB00008466EE730F0004C18BF31F0004CCAD143
:100FC00030F000427FF45CAF31F000437FF43CAF7F
:100FD0005FE700BF4FF0FF3C06E000BF4FF0010CA1
:100FE00002E000BF4FF0010C4DF804CD4FEA400283
:100FF0004FEA41037FEA226C18BF7FEA236C11D0CD
:1010000001B052EA530C18BF90EA010F58BFB2EB7F
:10101000030088BFC81738BF6FEAE17018BF40F0FF
:10102000010070477FEA226C02D15FEA402C05D1B3
:101030007FEA236CE4D15FEA412CE1D05DF8040B38
:10104000704700BF844608466146FFE70FB5FFF7CB
:10105000C9FF002848BF10F1000F0FBD4DF808ED83
:10106000FFF7F4FF0CBF012000205DF808FB00BF74
:101070004DF808EDFFF7EAFF34BF012000205DF8CE
:1010800008FB00BF4DF808EDFFF7E0FF94BF01201B
:1010900000205DF808FB00BF4DF808EDFFF7D2FF18
:1010A00094BF012000205DF808FB00BF4DF808ED5B
:1010B000FFF7C8FF34BF012000205DF808FB00BF28
:1010C0004FEA4002B2F1FE4F0FD34FF09E03B3EB55
:1010D00012620DD94FEA002343F0004310F0004F95
:1010E00023FA02F018BF404270474FF000007047EB
:1010F00012F1610F01D1420205D110F0004008BF8A
:101100006FF0004070474FF000007047034613F83F
:10111000012B002AFBD1181A0138704710B504467C
:101120000E4B18784FF47A73B3FBF0F30C4A106847
:10113000B0FBF3F000F0A2F868B90F2C01D9012040
:101140000AE0002221464FF0FF3000F055F8034B33
:101150005C60002000E0012010BD00BF0000002006
:101160001400002008B5074A136843F01003136009
:10117000032000F02FF80020FFF7D0FF03F0DEFC83
:10118000002008BD00200240034A1168034B1B7871
:101190000B441360704700BF3402002000000020A1
:1011A000014B1868704700BF3402002038B5044670
:1011B000FFF7F6FF0546B4F1FF3F02D0044B1B7862
:1011C0001C44FFF7EDFF401BA042FAD338BD00BF1F
:1011D00000000020074AD36823F4E0631B041B0CC3
:1011E000000200F4E060184340F0BF6040F40030BB
:1011F000D060704700ED00E030B4174BDB68C3F3FC
:101200000223C3F10704042C28BF04241D1D062D4E
:1012100018D9033B4FF0FF3505FA04F421EA040125
:10122000994005FA03F322EA0303194300280BDB74
:101230000901C9B200F1604000F5614080F8001377
:1012400030BC70470023E5E700F00F000901C9B288
:10125000024B1954F4E700BF00ED00E014ED00E08C
:10126000002807DB00F01F02400901239340024AD7
:1012700042F82030704700BF00E100E00138B0F1D3
:10128000807F0AD2064B5860064AF02182F823106C
:101290000020986007221A6070470120704700BF45
:1012A00010E000E000ED00E0F0B482B0002632462D
:1012B000A2E0002D5AD0012D00D1CE68FF2B69D8B5
:1012C0008446FF2B69D89500DCF800400F27AF401B
:1012D00024EA070406FA05F52C43CCF800404C68D4
:1012E00014F0805F00F087805F4CA56945F0010530
:1012F000A561A46904F001040194019C9508AF1C48
:101300005A4C54F8274002F00307BF004FF00F0C6F
:101310000CFA07FC24EA0C0C554CA04243D004F50F
:101320008064A04200F0818004F58064A0427ED0F9
:1013300004F58064A04234D0042435E04D4FBD4212
:1013400014D00BD94C4FBD4210D007F58037BD42A9
:101350000CD0A7F58017BD42B0D107E0A7F58017E4
:10136000BD4203D007F58037BD42A7D18D687DB15E
:10137000012D08D044610826A0E7CE6808369DE715
:10138000CE680C369AE70461082697E7002695E7B1
:10139000042693E700F1040C93E7A2F10805AD00E1
:1013A00092E7032400E00024BC4044EA0C04023528
:1013B0002E4F47F825404C6814F4803F39D02F4D0C
:1013C0002C681C432C604C6814F4003F37D02B4D24
:1013D0006C681C436C604C6814F4801F35D0274D3A
:1013E000AC681C43AC604C6814F4001F33D0234D30
:1013F000EC682343EB6001320B6833FA02F430D01F
:101400000124944023409C42F5D14D68122DB7D061
:1014100094D8022DB1D07FF64CAF032DB6D0112D4C
:101420007FF44CAFCE68043648E70124BCE70224C1
:10143000BAE7124D2C6824EA03042C60C3E70F4D71
:101440006C6824EA03046C60C5E70C4DAC6824EAC0
:101450000304AC60C7E7094DEC6824EA0303EB60C2
:10146000C9E702B0F0BC7047001002400000014024
:10147000000801400000211000003110000401406C
:1014800012B90904016170470161704703685A6924
:1014900012F4806F11D06FF480625A6100230363ED
:1014A000202280F83D2080F83E30026C42F0040299
:1014B000026480F83C300120704700207047F8B586
:1014C00006460C4617461D4622E0FFF769FE069BBE
:1014D000C01AA84200D8DDB900233363202286F861
:1014E0003D2086F83E30326C42F02002326486F8AD
:1014F0003C3001201AE033685B6924EA03039BB2A5
:10150000B3FA83F35B099F420FD1B5F1FF3FDCD102
:10151000C4F30743012BEED033689B6924EA03032D
:101520009BB2B3FA83F35B09EDE70020F8BDF8B591
:1015300004460D4616461F463CE01A6842F4007207
:101540001A6023686FF480625A61002323632022AB
:1015500084F83D2084F83E30226C42F0040222647C
:1015600084F83C30012033E0FFF71AFEC01BB04284
:1015700000D8FEB900232363202284F83D2084F89C
:101580003E30226C42F02002226484F83C3001207C
:101590001EE023685B6925EA03039BB2003318BF92
:1015A0000123A3B123685A6912F4806FC5D1B6F143
:1015B000FF3FD9D1C5F30743012BEAD023689B69CC
:1015C00025EA03039BB2003318BF0123E9E700209B
:1015D000F8BD0000F0B583B004460F4615461E4620
:1015E000C36A082B0DD0012B0BD013F5803F08D018
:1015F000036B122B0AD10268136843F480731360E3
:1016000004E02268136843F48073136000962B464D
:1016100000224FF001112046FFF751FF18BB23694C
:10162000B3F5804F0DD1236807F0FE071F613346E5
:101630002A4610492046FFF77AFF0346A0B101234E
:1016400012E0FB11226803F0060343F0F00313617C
:1016500033462A4608492046FFF769FF38B9236810
:10166000FFB21F61E3E70123184603B0F0BD012379
:10167000FAE700BF02000100080001002DE9F04177
:1016800084B004460D4616461F46C26A01680B68C0
:1016900043F480630B60082A0DD0012A0BD012F5A9
:1016A000803F08D0036B112B0AD10268136843F402
:1016B0008073136004E02268136843F4807313603E
:1016C0000097334600224FF001112046FFF7F7FE46
:1016D000002849D12369B3F5804F0FD1236845F025
:1016E0000105EDB21D613B46324623492046FFF716
:1016F0001EFF0346002838D0012336E04FEAE518E4
:1017000008F00608236848F0F0021A613B463246AA
:101710001A492046FFF70BFF08B1012325E0236893
:10172000EDB21D613B46324613492046FFF7FFFEEE
:1017300008B1012319E0002203922368596903913B
:10174000996903910399196841F4807119600097B0
:1017500033464FF001112046FFF7B1FE48B9226829
:1017600048F0F1031361BEE70123184604B0BDE859
:10177000F0810123F9E700BF020001000800010029
:1017800070B504460D46164623685B6913F0800F5A
:101790001CD12046FFF77AFED0B9B5F1FF3FF3D058
:1017A000FFF7FEFC801BA84201D8002DECD10023DE
:1017B0002363202284F83D2084F83E30226C42F0DE
:1017C0002002226484F83C30012000E0002070BD3B
:1017D0000120FCE770B504460D46164623685B6998
:1017E00013F0040F1CD12046FFF750FED0B9B5F11D
:1017F000FF3FF3D0FFF7D4FC801BA84201D8002D97
:10180000ECD100232363202284F83D2084F83E306D
:10181000226C42F02002226484F83C30012000E077
:10182000002070BD0120FCE770B505460C46164649
:101830002B685A6912F0400F29D15A6912F0100F23
:1018400015D1FFF7ADFC801BA04201D8002CEFD1D1
:1018500000232B63202285F83D2085F83E302A6C3A
:1018600042F020022A6485F83C30012070BD6FF000
:1018700010025A6100232B63202285F83D2085F851
:101880003E302A6C2A6485F83C300120EEE70020C7
:10189000ECE70000002800F0BE80F8B5044690F8A0
:1018A0003D30002B6BD0242384F83D302268136830
:1018B00023F00103136000F0BBFE6268584B9A42AC
:1018C00062D8584B98428CBF00230123002B40F074
:1018D000A480554BA3FB00239B0C21684A6822F08F
:1018E0003F021A434A6025682A6A22F03F0266686E
:1018F0004B498E424ED8013313432B622568E96968
:1019000021F44F4121F0FF016368454A93424BD8CF
:1019100001385B00B0FBF3F30133C3F30B03042B7B
:1019200038BF04230B43EB6121680B6823F0C0032D
:10193000E269206A024313430B6021688B6823F439
:10194000034323F0FF032269E068024313438B60E3
:101950002168CB6823F0FF036269A0690243134347
:10196000CB602268136843F00103136000202064F9
:10197000202384F83D30206384F83E00F8BD80F8D1
:101980003C3002F0F9FF8EE7284B98428CBF0023D1
:1019900001239BE74FF4967101FB03F32449A1FB5C
:1019A00003139B090133A7E7A268BAB9461E03EBEC
:1019B0004307B6FBF7F60136C6F30B06B6FA86F612
:1019C000760936BBC2B9013803EB4303B0FBF3F32E
:1019D0000133C3F30B0242F40043A3E7461E03EBBB
:1019E000830707EB8707B6FBF7F60136C6F30B064E
:1019F000B6FA86F67609E4E7013803EB830303EBD6
:101A00008303B0FBF3F20132C2F30B0242F4404312
:101A100088E7012386E7012070470120AEE700BF79
:101A2000A08601007F841E0083DE1B43FF083D006B
:101A3000D34D62102DE9F04184B004460E46904625
:101A40001F46FFF7ADFB94F83D30DBB2202B04D0EE
:101A50000226304604B0BDE8F08105460090192307
:101A600001224F492046FFF72AFD002840F09180CF
:101A700094F83C30012B00F08E80012384F83C3038
:101A800023681A6812F0010F03D11A6842F00102AC
:101A90001A602268136823F400631360212384F81A
:101AA0003D30102384F83E3000232364C4F82480A2
:101AB0006785638D23853B4BE3622B460A9A31464B
:101AC0002046FFF787FD0646002866D100230393D2
:101AD00023685A6903929B690393039B12E0236C6A
:101AE000042B01D00126B4E72268136843F4007385
:101AF00013600126ADE72A460A992046FFF76AFEE1
:101B000000282CD1238D002B35D02A460A99204657
:101B1000FFF736FE0028E2D1626A236812781A6164
:101B2000616A4B1C6362638D013B9BB26385238DAD
:101B3000013B9BB223852268506910F0040FDAD074
:101B4000002BD8D04B781361636A01336362638DD5
:101B5000013B9BB26385238D013B2385CBE7236C3F
:101B6000042B01D0012674E72268136843F4007344
:101B7000136001266DE72268136843F40073136055
:101B8000202384F83D30002384F83E3084F83C3034
:101B90005FE702265DE702265BE7012659E700BF03
:101BA000020010000000FFFF2DE9F04186B004465E
:101BB0000E4690461F46FFF7F3FA94F83D30DBB22D
:101BC000202B04D00226304606B0BDE8F081054641
:101BD0000090192301228A492046FFF770FC002853
:101BE00040F0448194F83C30012B00F04181012306
:101BF00084F83C3023681A6812F0010F03D11A6888
:101C000042F001021A602268136823F40063136033
:101C1000222384F83D30102384F83E3000232364CF
:101C2000C4F824806785638D2385764BE3622B4659
:101C30000C9A31462046FFF721FD0646002840F069
:101C40001981238D5BB9029323685A6902929A69BC
:101C50000292029A1A6842F400721A607DE0012B27
:101C60000FD0022B21D02268136843F480631360E5
:101C70000023059323685A6905929B690593059B88
:101C80006BE02268136823F48063136072B600234C
:101C9000039323685A6903929A690392039A1A6814
:101CA00042F400721A6062B657E02268136843F487
:101CB0000063136072B60023049323685A69049288
:101CC0009A690492049A1A6822F480621A6062B6D1
:101CD00043E02A460C992046FFF7A6FD002840F075
:101CE000CB8023681A69636A1A70636A013363627E
:101CF000238D013B2385638D013B9BB263852CE0E3
:101D000000950C9B002240492046FFF7D8FB002895
:101D100040F0B48072B62268136843F40073136015
:101D200023681A69636A1A70636A01336362238DD8
:101D3000013B2385638D013B9BB2638562B62368BB
:101D40001A69636A1A70636A01336362238D013B07
:101D50002385638D013B9BB26385238D002B7CD053
:101D6000032B53D8012BB4D0022BC9D000950C9B68
:101D7000002225492046FFF7A2FB002840F0808082
:101D80002268136823F48063136072B623681A69AB
:101D9000636A1A70636A01336362238D013B238592
:101DA000638D013B9BB2638500950C9B0022164915
:101DB0002046FFF784FB002864D12268136843F4AF
:101DC0000073136023681A69636A1A70636A0133C7
:101DD0006362238D013B2385638D013B9BB2638549
:101DE00062B623681A69636A1A70636A01336362B0
:101DF000238D013B2385638D013B9BB26385ACE75B
:101E0000020010000000FFFF040001002A460C99A8
:101E10002046FFF709FD002836D123681A69636A56
:101E20001A70626A531C6362238D013B2385638DA4
:101E3000013B9BB263852368596911F0040F8CD074
:101E40001B695370636A01336362238D013B2385F1
:101E5000638D013B9BB263857FE7202384F83D308F
:101E6000002384F83E3084F83C30ACE60226AAE633
:101E70000226A8E60126A6E60126A4E60126A2E699
:101E80000126A0E601269EE601269CE62DE9F04308
:101E900085B00446884691461D46FFF781F994F8BF
:101EA0003D30DBB2202B04D00223184605B0BDE83C
:101EB000F083064600901923012254492046FFF77B
:101EC000FEFA002840F0978094F83C30012B00F097
:101ED0009480012384F83C3023681A6812F0010FC3
:101EE00003D11A6842F001021A602268136823F4D1
:101EF00000631360242384F83D3000232364A3F59A
:101F00008033E362012734E0A02384F83D30236866
:101F10005A69C2F340025969C1F3802194F83D30F7
:101F2000DBB2A02B09D042B939B9FFF739F9801BD0
:101F3000A842E9D8002DEAD1E6E7202384F83D3015
:101F400023685A6912F0020F31D11A6842F4007204
:101F50001A6023686FF480625A6100961923012287
:101F60002A492046FFF7ABFA00284CD101374F45EC
:101F700039D22268136843F48073136000962B46AD
:101F800000224FF001112046FFF799FA002836D1C0
:101F9000236808F0FE021A61FFF702F9064623687B
:101FA0005A69C2F340025969C1F38021B6E71A6841
:101FB00042F400721A600023039323685A69039263
:101FC0009B690393039B0096192301220F49204626
:101FD000FFF775FA0346A0B9202284F83D200022BD
:101FE00084F83C2061E7202384F83D30002384F806
:101FF0003C30012359E7022357E7022355E7012329
:1020000053E7012351E701234FE700BF020010000F
:1020100082B0084B1B68084AA2FB03235B0A00FB43
:1020200003F0019000BF019B5A1E0192002BF9D1D1
:1020300002B0704714000020D34D6210002800F059
:10204000F58170B582B00446036813F0010F2CD0FF
:10205000AB4B5B6803F00C03042B1DD0A84B5B68F3
:1020600003F00C03082B12D06368B3F5803F41D016
:10207000002B55D103F1804303F504331A6822F491
:1020800080321A601A6822F480221A6037E09C4B72
:102090005B6813F4803FE7D0994B1B6813F4003F53
:1020A00003D06368002B00F0C381236813F0020F94
:1020B00076D0934B5B6813F00C0F5FD0904B5B684E
:1020C00003F00C03082B54D02369002B00F08A8006
:1020D0008C4B01221A60FFF763F80546884B1B689A
:1020E00013F0020F75D1FFF75BF8401B0228F5D9FA
:1020F0000320A0E1824A136843F4803313606368CD
:1021000043B3FFF74DF805467D4B1B6813F4003FC2
:10211000CBD1FFF745F8401B6428F5D903208AE1AD
:10212000B3F5A02F09D0764B1A6822F480321A60DA
:102130001A6822F480221A60E1E703F18043A3F5D4
:102140003C331A6842F480221A601A6842F48032E2
:102150001A60D4E7FFF724F80546694B1B6813F4AF
:10216000003FA2D0FFF71CF8401B6428F5D90320DC
:1021700061E1634B5B6813F4803FA5D1604B1B6842
:1021800013F0020F04D02369012B01D0012052E18A
:102190005B4A136823F0F803616943EAC1031360E3
:1021A000236813F0080F32D0A369002B5BD0564B85
:1021B00001221A60FEF7F4FF0546514B5B6A13F0EB
:1021C000020F21D1FEF7ECFF401B0228F5D90320B6
:1021D00031E14B4A136823F0F803616943EAC10314
:1021E0001360DDE7474B00221A60FEF7D9FF054672
:1021F000434B1B6813F0020FD2D0FEF7D1FF401BF8
:102200000228F5D9032016E10120FFF701FF23681A
:1022100013F0040F00F09880394BDB6913F0805FF6
:1022200033D1374BDA6942F08052DA61DB6903F06F
:1022300080530193019B0125344B1B6813F4807F6D
:1022400025D0E368012B36D0002B4CD103F180431D
:1022500003F504331A6A22F001021A621A6A22F0A4
:1022600004021A622CE0284B00221A60FEF798FF45
:102270000546234B5B6A13F0020FC8D0FEF790FFB0
:10228000401B0228F5D90320D5E00025D4E71F4ADA
:10229000136843F480731360FEF782FF06461B4BFE
:1022A0001B6813F4807FCCD1FEF77AFF801B642873
:1022B000F5D90320BFE0124A136A43F00103136209
:1022C000E3687BB3FEF76CFF06460D4B1B6A13F009
:1022D000020F38D1FEF764FF801B41F28833984229
:1022E000F3D90320A7E0052B12D0054B1A6A22F080
:1022F00001021A621A6A22F004021A62E0E700BFC1
:10230000001002400000424280044242007000403F
:102310004C4B1A6A42F004021A621A6A42F0010235
:102320001A62CDE7FEF73CFF0646464B1B6A13F0E8
:10233000020F08D0FEF734FF801B41F28833984229
:10234000F3D9032077E0E5B9E369002B72D03D4A69
:10235000526802F00C02082A56D0022B17D03A4BD2
:1023600000221A60FEF71CFF0446364B1B6813F070
:10237000007F47D0FEF714FF001B0228F5D9032089
:1023800059E0304AD36923F08053D361DCE72E4B08
:1023900000221A60FEF704FF05462A4B1B6813F063
:1023A000007F06D0FEF7FCFE401B0228F5D9032073
:1023B00041E0236AB3F5803F1AD022494B6823F4E9
:1023C0007413226A606A024313434B601E4B01225E
:1023D0001A60FEF7E5FE04461A4B1B6813F0007FF7
:1023E0000ED1FEF7DDFE001B0228F5D9032022E006
:1023F000144A536823F40033A1680B435360DCE7AD
:10240000002018E0002016E0012B16D00D4B5B6871
:1024100003F48031226A914201D001200BE003F4E1
:102420007013626A93420AD0012004E001207047D1
:10243000012000E0002002B070BD0120FBE7002079
:10244000F9E700BF001002406000424210B487B0BC
:10245000164C94E80F000DF1180C0CE90F00238ABC
:10246000ADF80430124B5B6803F00C02082A1AD155
:10247000C3F38342624412F8102C13F4803F05D159
:102480000C4800FB02F007B010BC7047084B5B68BB
:10249000C3F34043634413F8143C074800FB02F0C5
:1024A000B0FBF3F0EFE70448EDE700BF207B000846
:1024B0000010024000093D0000127A00002800F0E0
:1024C000A38070B50446524B1B6803F007038B4290
:1024D0000CD24F4A136823F007030B4313601368B1
:1024E00003F007038B4201D0012070BD236813F075
:1024F000020F17D013F0040F04D0464A536843F478
:10250000E0635360236813F0080F04D0414A536816
:1025100043F4605353603F4A536823F0F003A068CC
:10252000034353600D46236813F0010F31D06368F5
:10253000012B20D0022B25D0364A126812F0020F50
:1025400064D034494A6822F0030213434B60FEF71B
:1025500027FE06462F4B5B6803F00C036268B3EB63
:10256000820F16D0FEF71CFE801B41F28833984282
:10257000F0D90320B9E7274A126812F4003FE0D1EE
:102580000120B2E7234A126812F0007FD9D101205E
:10259000ABE71F4B1B6803F00703AB420CD91C4A87
:1025A000136823F007032B431360136803F007033A
:1025B000AB4201D0012098E7236813F0040F06D046
:1025C000144A536823F4E063E1680B4353602368C3
:1025D00013F0080F07D00F4A536823F460532169A2
:1025E00043EAC1035360FFF731FF0A4B5B68C3F353
:1025F0000313094AD35CD840084B1860084B18688D
:10260000FEF78CFD002070E70120704701206CE789
:102610000020024000100240A07B000814000020AF
:1026200004000020014B1868704700BF1400002010
:1026300008B5FFF7F7FF044B5B68C3F30223034AB7
:10264000D35CD84008BD00BF00100240B07B00083A
:1026500008B5FFF7E7FF044B5B68C3F3C223034AE7
:10266000D35CD84008BD00BF00100240B07B00081A
:1026700010B4036A046A24F001040462846924F03B
:10268000F00444EA021223F00A030B43826103625E
:1026900010BC704710B4036A23F01003036284690E
:1026A000036A24F4704444EA023223F0A00343EAAC
:1026B00001138261036210BC7047836823F07003CA
:1026C000194341F00701816070470268D36843F005
:1026D0000103D3600268936803F00703062B03D05D
:1026E000136843F001031360002070477047704780
:1026F0007047704710B5044603681A6912F0020F5C
:1027000011D0DA6812F0020F0DD06FF002021A61D8
:102710000123037703689B6913F0030F70D0FFF761
:10272000E6FF0023237723681A6912F0040F12D002
:10273000DA6812F0040F0ED06FF004021A6102235F
:10274000237723689B6913F4407F5FD02046FFF70F
:10275000CEFF0023237723681A6912F0080F12D0E6
:10276000DA6812F0080F0ED06FF008021A61042325
:1027700023772368DB6913F0030F4ED02046FFF761
:10278000B6FF0023237723681A6912F0100F12D0C6
:10279000DA6812F0100F0ED06FF010021A610823E1
:1027A00023772368DB6913F4407F3DD02046FFF791
:1027B0009EFF0023237723681A6912F0010F03D0CC
:1027C000DA6812F0010F36D123681A6912F0800F0F
:1027D00003D0DA6812F0800F34D123681A6912F03E
:1027E000400F03D0DA6812F0400F32D123681A6923
:1027F00012F0200F03D0DA6812F0200F30D110BD94
:10280000FFF774FF2046FFF773FF8AE72046FFF7C4
:102810006DFF2046FFF76CFF9BE72046FFF766FF42
:102820002046FFF765FFACE72046FFF75FFF204635
:10283000FFF75EFFBDE76FF001021A61204602F06C
:10284000CDF8C1E76FF080021A61204600F0FFF872
:10285000C3E76FF040021A612046FFF74AFFC5E761
:102860006FF020021A61204600F0F0F8C7E7000080
:1028700003681B4A90420AD0B0F1804F07D0A2F5FE
:102880009432904203D002F58062904203D123F04B
:1028900070034A681343124A90420AD0B0F1804F45
:1028A00007D0A2F59432904203D002F580629042A4
:1028B00003D123F44073CA68134323F080034A69A9
:1028C000134303608B68C3620B688362044B9842B6
:1028D00002D00123436170470B690363F9E700BF2E
:1028E000002C0140A8B110B5044690F83D305BB112
:1028F000022384F83D30211D2068FFF7B9FF012332
:1029000084F83D30002010BD80F83C3002F0C8F95A
:10291000EEE70120704710B4846824F47F4442EA53
:1029200003230B432343836010BC704790F83C3073
:10293000012B66D010B50446012380F83C300223F9
:1029400080F83D300268936823F47F4323F07703D7
:1029500093600B68402B4AD013D9602B3DD01ED911
:10296000702B28D0B3F5005F30D1CB684A688968F6
:102970000068FFF7D0FF2268936843F480439360B8
:1029800024E0102B06D004D9202B03D0302B01D00B
:102990001CE0DBB919462068FFF78FFE16E0502BCC
:1029A00014D1CA6849680068FFF762FE50212068A8
:1029B000FFF783FE0AE0CB684A6889680068FFF782
:1029C000AAFF2268936843F077039360012384F899
:1029D0003D30002084F83C0010BDCA68496800689A
:1029E000FFF758FE60212068FFF767FEEEE7CA6830
:1029F00049680068FFF73CFE40212068FFF75DFE54
:102A0000E4E70220704790F83C30012B1CD070B4F2
:102A1000012680F83C60022380F83D30026855684A
:102A2000936825F070050C682C4323F080054B68F3
:102A30002B4354600268936080F83D60002380F867
:102A40003C30184670BC7047022070477047704792
:102A500038B504460268136923F44053C1680B4338
:102A6000136183680269134342691A430168CB68A2
:102A700023F4B05323F00C031343CB600268536973
:102A800023F4407381690B4353610268214B9A42DE
:102A90001FD0FFF7CDFD00EB800000EB80006368E6
:102AA0009B00B0FBF3F01C4DA5FB003251096422E2
:102AB00002FB110213013233A5FB03235B0903F070
:102AC000F00202EB011203F00F03216813448B6044
:102AD00038BDFFF7BDFD00EB800000EB80006368B0
:102AE0009B00B0FBF3F00C4DA5FB003251096422B2
:102AF00002FB110213013233A5FB03235B0903F030
:102B0000F00202EB011203F00F03216813448B6003
:102B1000DEE700BF003801401F85EB512DE9F04191
:102B200005460F4616469846069C2B681B6837EAF2
:102B300003030CBF01230023B3421DD1B4F1FF3FB7
:102B4000F3D02CB1FEF72CFBA0EB0800A042ECD98F
:102B50002A68D36823F4D073D3602A68536923F0BA
:102B600001035361202385F8393085F83A3000237A
:102B700085F83830032000E00020BDE8F08158B32C
:102B800010B5044690F839300BB3242384F839305B
:102B90002268D36823F40053D3602046FFF758FF20
:102BA0002268136923F4904313612268536923F068
:102BB0002A0353612268D36843F40053D360002092
:102BC000E063202384F8393084F83A3010BD80F86F
:102BD000383002F09FF8D8E7012070472DE9F04126
:102BE00082B01E4690F83930DBB2202B55D1044616
:102BF0000D469046002955D0002A55D090F838301F
:102C0000012B53D0012380F838300023C3632123E4
:102C100080F83930FEF7C4FA0746A4F82480A4F8F7
:102C2000268010E000963B46002280212046FFF7D8
:102C300075FF00283CD12B882268C3F3080353603A
:102C40002369C3B90235E38C9BB2B3B1E38C013B7A
:102C50009BB2E384A368B3F5805FE3D000963B4664
:102C6000002280212046FFF759FF18BB2A782368ED
:102C70005A600135E7E70135E5E700963B4600225B
:102C800040212046FFF74AFF0346A8B9202284F8D6
:102C90003920002284F8382000E00223184602B0D0
:102CA000BDE8F0810123F9E70123F7E70223F5E707
:102CB0000323F3E70323F1E70323EFE700B587B02E
:102CC000C823032218214F48FFF7E0F80028F7D166
:102CD0000A238DF8143000238DF815304FF47A73E1
:102CE0000093022305AA18214648FEF7A3FE0028F8
:102CF000F4D16420FEF75AFA0A238DF814301F230A
:102D00008DF815304FF47A730093022305AA182129
:102D10003C48FEF78FFE0028F4D16420FEF746FA07
:102D200010238DF80F304FF47A73009301230DF1C7
:102D30000F0218213348FEF77DFE0028F3D14FF42F
:102D40007A730093032304AA18212E48FEF72CFF60
:102D50000028F4D19DF810008038FDF797FF4FF060
:102D60006E51FDF7E7FF4FF07E51FDF7DBFE264B7E
:102D700018609DF811008038FDF788FF4FF06E5104
:102D8000FDF7D8FF4FF07E51FDF7CCFE1F4B1860CA
:102D90009DF812008038FDF779FF4FF06E51FDF776
:102DA000C9FF4FF07E51FDF7BDFE194B18600A2395
:102DB0008DF8143000238DF815304FF47A7300939A
:102DC000022305AA18210F48FEF734FE0028F4D18B
:102DD0006420FEF7EBF90A238DF8143016238DF8E2
:102DE00015304FF47A730093022305AA1821054881
:102DF000FEF720FE0028F4D16420FEF7D7F907B0D3
:102E00005DF804FB88020020B00300207803002056
:102E1000A803002010B584B004461C238DF80B30A5
:102E20004FF47A73009301230DF10B02D0211C485B
:102E3000FEF700FE0028F3D14FF47A7300930123CC
:102E40000DF10A02D0211648FEF7AEFE0028F3D19C
:102E50001C238DF80C309DF80A0020F0180040B2B9
:102E600020438DF80D0064230093022303AAD02190
:102E70000B48FEF7DFFD0028F5D11D238DF80C303F
:102E800005238DF80D304FF47A730093022303AAC3
:102E9000D0210348FEF7CEFD0028F4D104B010BDC8
:102EA000880200202DE9F04188B03B238DF80F30D7
:102EB0004FF0000866E04FF47A73009301230DF1A0
:102EC0000F02D0215048FEF7B5FD0028F3D14FF492
:102ED0007A7300930E2304AAD0214B48FEF764FEB8
:102EE0000028F4D19DF81060360236B29DF81130FA
:102EF0001E43464B1E809DF812502D022DB29DF8A8
:102F000013301D43424B1D809DF81400000200B297
:102F10009DF8153018433F4B18809DF81810090292
:102F200009B29DF8193019433B4B19809DF81A20BE
:102F3000120212B29DF81B301A43384B1A809DF8CA
:102F40001C301B021BB29DF81D703B43344F3B806D
:102F5000344F3C6826443E60334F3E6835443D6004
:102F6000324E356828443060314D2868014429606C
:102F7000304801680A4402602F490A6813440B6014
:102F800008F10108B8F1630F95DD26490B682B4A5B
:102F900082FB0340DB17C3EB60130B6022490B6815
:102FA00082FB0340DB17C3EB60130B601F4B1B68F6
:102FB00082FB0301DB17C3EB61131D48016882FB31
:102FC0000154C917C1EB641101601A48016882FB02
:102FD0000154C917C1EB641101601748016882FBF5
:102FE0000142C917C1EB62120260002B06DDA3F596
:102FF00080430E4A136008B0BDE8F08103F58043BA
:103000000A4A1360F7E700BF880200205C03002033
:1030100058030020380200204402002094030020BE
:10302000480300203C0200206403002068030020C5
:10303000A403002098030020880300201F85EB5183
:1030400000B585B01B238DF80C308DF80D0064237E
:103050000093022303AAD0210348FEF7EBFC0028CB
:10306000F5D105B05DF804FB8802002010B584B0EE
:10307000044675238DF80F304FF47A7300930123C3
:103080000DF10F02D0210C48FEF7D4FC0028F3D13B
:103090004FF47A7300930123084AD0210648FEF7C3
:1030A00083FD0028F4D1054B1B78A34202D00020F9
:1030B00004B010BD0120FBE788020020F0020020D0
:1030C00000B585B06B238DF80C308DF80D006423AE
:1030D0000093022303AAD0210348FEF7ABFC00288B
:1030E000F5D105B05DF804FB8802002000B585B07D
:1030F00003230222D0213A48FEF7C8FE0028F7D168
:103100006B238DF80C3000238DF80D306423009371
:10311000022303AAD0213248FEF78CFC0028F5D107
:103120006420FEF743F80120FFF7CAFF1A238DF849
:103130000C3000238DF80D3064230093022303AA82
:10314000D0212748FEF776FC0028F5D119238DF809
:103150000C3007238DF80D3064230093022303AA5B
:10316000D0211F48FEF766FC0028F5D1FFF752FE7C
:103170000020FFF765FF6A238DF80C3000238DF8DF
:103180000D3064230093022303AAD0211448FEF7D4
:1031900051FC0028F5D138238DF80C3001238DF82F
:1031A0000D304FF47A730093022303AAD0210C4808
:1031B000FEF740FC0028F4D137238DF80C30222391
:1031C0008DF80D304FF47A730093022303AAD021B7
:1031D0000348FEF72FFC0028F4D105B05DF804FB8E
:1031E0008802002000B587B002238DF80F3003233A
:1031F0008DF80E304FF47A73009301230DF10F0216
:1032000018212648FEF716FC0028F3D14FF47A73F4
:103210000093012304AA18212048FEF7C5FC0028CA
:10322000F4D19DF8103013F0010F33D04FF47A73BE
:10323000009301230DF10E0218211848FEF7FAFB46
:103240000028F3D14FF47A730093072304AA1821BE
:103250001248FEF7A9FC0028F4D19DF8163013F0AF
:10326000080F17D19DF811209DF8103043EA022372
:103270000B4A13809DF813209DF8123043EA022375
:10328000084A13809DF815209DF8143043EA022364
:10329000054A138007B05DF804FB00BF88020020D8
:1032A0005A0300208403002038030020000000009F
:1032B0002DE9F04F8DB03B238DF81F304FF47A731A
:1032C000009301230DF11F02D0217148FEF7B2FBDC
:1032D0000028F3D14FF47A7300930E2308AAD0216B
:1032E0006B48FEF761FC0028F4D19DF820301B02EA
:1032F0001BB29DF821000343664A13809DF82250BB
:103300002D022DB29DF823201543634A15809DF8A8
:1033100024804FEA08280FFA88F89DF8252048EA0B
:1033200002085E4AA2F800809DF828703F023FB272
:103330009DF8292017435A4A17809DF82A603602C3
:1033400036B29DF82B201643564A16809DF82C4025
:10335000240224B29DF82D201443534A1480534A6A
:103360001068181AFDF792FC4FF06251FDF7E2FC6D
:10337000DFF870B1CBF800004D4B1868281AFDF744
:1033800085FC4FF06251FDF7D5FC4A4D28604A4B51
:103390001868A8EB0000FDF779FC4FF06251FDF7CB
:1033A000C9FCDFF844A1CAF80000444B1868381A79
:1033B000FDF76CFC4249FDF771FD424F3860424B0E
:1033C0001868301AFDF762FC3D49FDF767FDDFF82C
:1033D0001C81C8F800003D4B1868201AFDF756FC08
:1033E0003749FDF75BFD3A4C2060FFF7FBFE38687C
:1033F000FDF712F824A3D3E90023FDF765F80022B6
:10340000344BFDF78BF906460F46D8F80000FDF760
:1034100003F81DA3D3E90023FDF756F800222D4B36
:10342000FDF77CF9804689462068FCF7F5FF16A376
:10343000D3E90023FDF748F80022264BFDF76EF98B
:10344000DBF800B0FDF718FB044640464946FDF79F
:1034500013FB804630463946FDF70EFB1E4B1B68BA
:1034600004931E4B1B6803931D4B1B680293DAF8F1
:10347000003001932B6800935B462246414600F0E2
:103480001FFD0DB0BDE8F08F182D4454FB210940FD
:10349000880200205C03002058030020380200202E
:1034A0004402002094030020480300203C02002036
:1034B000640300209003002068030020A403002080
:1034C00000000343B4030020980300208803002079
:1034D0006003002000806640E4020020F402002027
:1034E00080030020EC02002040020020AC030020FA
:1034F0002DE9F04F8FB0A44B03F1580292E803007E
:103500000C90ADF83410603393E803000A90ADF8E6
:103510002C109E4B0022DA6002238DF81F3003230B
:103520008DF81E3000245AE04FF47A730093012383
:103530000DF11E0218219648FEF77CFA0028F3D1FF
:103540004FF47A730093072308AA18219048FEF7D6
:103550002BFB0028F4D19DF8263013F0080F5ED124
:103560009DF821301B021BB29DF820201343894A8D
:1035700013809DF823301B021BB29DF822201343B9
:10358000854A13809DF825301B021BB29DF824202C
:103590001343824A138042E00133022B1ADC0EAA45
:1035A00002EB430131F9202C31F9081C8A4204DD79
:1035B0000EA901EB430121F8082C0EA901EB4301F0
:1035C00031F9101C8A42E7DA0EA901EB430121F818
:1035D000102CE1E70C20FDF7E9FD0134A4B240F224
:1035E000DB539C4229D84FF47A73009301230DF1E9
:1035F0001F0218216648FEF71DFA0028F3D14FF488
:103600007A730093012308AA18216148FEF7CCFAC7
:103610000028F4D19DF8203013F0010F84D15D4BC8
:103620001B88ADF818305C4B1B88ADF81A305B4B2B
:103630001B88ADF81C300023AFE7BDF93060BDF941
:1036400028B006EB0B0000EBD0704010544A10601D
:10365000BDF93250BDF92AA005EB0A0707EBD77771
:103660007F105760BDF93440BDF92C9004EB09037D
:1036700003EBD3735B1002939360FDF707FBFCF73A
:10368000CBFE3FA3D3E90023FCF71EFFCDE90401E5
:10369000444B1868FCF7C0FEDDE90423FCF714FF77
:1036A000FDF7EAF9DFF8E480C8F800003846FDF7D6
:1036B000EDFAFCF7B1FE32A3D3E90023FCF704FFD7
:1036C000CDE90401384B1868FCF7A6FEDDE90423B8
:1036D000FCF7FAFEFDF7D0F9C8F804000298FDF7F0
:1036E000D5FAFCF799FE26A3D3E90023FCF7ECFEFC
:1036F000CDE902012D4B1868FCF78EFEDDE90223AF
:10370000FCF7E2FEFDF7B8F9C8F80800A6EB0B06D7
:1037100006EBD6767610264B1E60A5EB0A0505EB68
:10372000D5756D105D60A4EB090404EBD4746410CE
:103730009C6070192044FDF7A9FA1E49FDF7AEFB05
:1037400007463046FDF7A2FA01463846FDF7A6FBCC
:10375000194B18602846FDF799FA01463846FDF7DF
:103760009DFB164B18602046FDF790FA014638463F
:10377000FDF794FB124B18600FB0BDE8F08F00BF4F
:10378000B3BBE2D77FFDF73F387B00083C03002046
:10379000880200205A030020840300203803002000
:1037A0004C030020B003002078030020A803002071
:1037B0006C03002000004040DC020020E0020020FA
:1037C0007C030020000000002DE9F84F82460E46E1
:1037D00015461C46FDF7AEFA074621462846FDF77A
:1037E000A9FA01463846FDF79DF90146FDF79AF919
:1037F000834631463046FDF79DFA804629462846E5
:10380000FDF798FA074601464046FDF78BF9014659
:10381000FDF788F901464FF07E50FDF781F9FCF77E
:10382000FBFD804689465846FCF7F6FD42464B466E
:1038300001F024FBFDF720F9494B1860294650465A
:10384000FDF778FA804621463046FDF773FA0146C7
:103850004046FDF765F90146FDF764F98046FDF73E
:103860002FFC0028B8BF404200286ADD4046FCF724
:10387000D3FD3C4BC90F61F3DF733B481946FDF79D
:10388000FBF83A4B186021465046FDF753FA804644
:1038900029463046FDF74EFA01464046FDF742F90B
:1038A0000146FDF73FF9064621462046FDF742FA5C
:1038B00001463846FDF736F90146FDF733F9014672
:1038C0004FF07E50FDF72CF9FCF7A6FD04460D469F
:1038D0003046FCF7A1FD22462B4601F0CFFAFDF75A
:1038E000CBF805461E4C22492068FDF723FAFCF769
:1038F00093FD19A3D3E90023FCF710FFFDF7BCF8F3
:1039000020601A4C1A492068FDF714FAFCF784FD70
:1039100011A3D3E90023FCF701FFFDF7ADF8206008
:1039200013492846FDF706FAFCF776FD0AA3D3E90A
:103930000023FCF7F3FEFDF79FF80E4B1860BDE87F
:10394000F88F4046FCF768FD01F046FAFDF794F861
:10395000064B186097E700BF182D4454FB2109401F
:10396000A0030020FB21F93F182D44549C030020A4
:10397000000034438C03002010B504464FF07C5106
:10398000FDF7D8F923460A4CA4EB63040146204610
:10399000FDF7D0F901462046FDF7CCF901464FF07E
:1039A0007F50FDF7BDF801462046FDF7C3F910BD75
:1039B000DF59375F2DE9F04F91B005460E461746A7
:1039C0009846AA4C206800F100402946FDF7B2F95C
:1039D000814660683146FDF7ADF901464846FDF77E
:1039E0009FF88146A0683946FDF7A4F9014648468C
:1039F000FDF796F84FF07C51FDF79CF90290DFF847
:103A00007092D9F800002946FDF794F98346606862
:103A10003946FDF78FF901465846FDF783F883468E
:103A2000A0683146FDF786F901465846FDF778F85B
:103A30004FF07C51FDF77EF90390D9F80000314634
:103A4000FDF778F9834620683946FDF773F901469A
:103A50005846FDF765F88346A0682946FDF76AF9E0
:103A600001465846FDF75EF84FF07C51FDF762F9CC
:103A70000490D9F800003946FDF75CF90746206844
:103A80003146FDF757F901463846FDF74BF8064633
:103A900060682946FDF74EF901463046FDF740F8CB
:103AA0004FF07C51FDF746F9059000214046FDF7A7
:103AB000D5FA58B100211A98FDF7D0FA30B100219B
:103AC0001B98FDF7CBFA002840F09981414640460B
:103AD000FDF730F904461A990846FDF72BF901461F
:103AE0002046FDF71FF804461B990846FDF722F90A
:103AF00001462046FDF716F8FFF73EFF0446014653
:103B00004046FDF717F9019021461A98FDF712F982
:103B1000824621461B98FDF70DF90890544D286800
:103B20000146FCF7FFFF0990504C20680146FCF766
:103B3000F9FF0A9060680146FCF7F4FF0B90A0685B
:103B40000146FCF7EFFF0C9028684FF08141FDF72C
:103B5000F1F8074620684FF08141FDF7EBF8069039
:103B600060684FF08141FDF7E5F8079020684FF05D
:103B70008241FDF7DFF8064660684FF08241FDF7AD
:103B8000D9F80D9028682968FDF7D4F80F902068BF
:103B90002168FDF7CFF8814660686168FDF7CAF8D3
:103BA0008346A068A168FDF7C5F80E9059463846CF
:103BB000FDF7C0F880460B990198FDF7BBF8014668
:103BC0004046FCF7AFFF804649463846FDF7B2F85D
:103BD00001464046FCF7A6FF07460A995046FDF706
:103BE000A9F801463846FCF79BFF80460E990698D7
:103BF000FDF7A0F807460C990198FDF79BF80146E0
:103C00003846FCF78DFF07464FF081410F98FDF7CE
:103C100091F80F902168FDF78DF801463846FCF7C2
:103C200081FF074609995046FDF784F8014638465A
:103C3000FCF776FF0699FCF773FF074649463046C6
:103C4000FDF778F801463846FCF76CFF0746594601
:103C50003046FDF76FF801463846FCF763FF06462D
:103C600006990898FDF766F804E000BF08020020F6
:103C70000800002001463046FCF754FF0746616803
:103C80000F98FDF757F8064609990198FDF752F885
:103C900001463046FCF746FF06460E990798FDF7A9
:103CA00049F801463046FCF73DFF06460C99504660
:103CB000FDF740F801463046FCF732FF0799FCF764
:103CC0002FFF064649460D98FDF734F80146304669
:103CD000FCF728FF064659460D98FDF72BF80146DC
:103CE0003046FCF71FFF064607990898FDF722F8B3
:103CF00001463046FCF716FF06464FF08141484624
:103D0000FDF718F8A168FDF715F881460A990198A2
:103D1000FDF710F801464846FCF702FF81464FF0D8
:103D200081415846FDF706F8A168FDF703F8014602
:103D30004846FCF7F7FE04460B995046FCF7FAFF9D
:103D400001462046FCF7ECFE814641464046FCF722
:103D5000F1FF044639463846FCF7ECFF01462046A1
:103D6000FCF7E0FE044631463046FCF7E3FF01462F
:103D70002046FCF7D7FE044649464846FCF7DAFFE2
:103D800001462046FCF7CEFEFFF7F6FD044601464D
:103D90004046FCF7CFFF804621463846FCF7CAFF75
:103DA000074621463046FCF7C5FF064621464846F1
:103DB000FCF7C0FF044668684146FCF7BBFF0146BC
:103DC0000298FCF7ADFE029068683946FCF7B2FF36
:103DD00001460398FCF7A4FE039068683146FCF79F
:103DE000A9FF01460498FCF79BFE049068682146F1
:103DF000FCF7A0FF01460598FCF792FE05902D49BF
:103E00000298FCF797FF2C4D2968FCF78BFE286081
:103E100028490398FCF78EFF284C2168FCF782FEA6
:103E2000206024490498FCF785FF6168FCF77AFE5E
:103E3000606020490598FCF77DFFA168FCF772FEE1
:103E4000A06028682968FCF775FF0646206821688D
:103E5000FCF770FF01463046FCF764FE06466068DA
:103E60006168FCF767FF01463046FCF75BFE0646DB
:103E7000A068A168FCF75EFF01463046FCF752FEE1
:103E8000FFF77AFD064628683146FCF753FF2860A5
:103E900020683146FCF74EFF206060683146FCF731
:103EA00049FF6060A0683146FCF744FFA06011B094
:103EB000BDE8F08F0AD7233C08000020080200204C
:103EC0002DE9F04F9FB005460E4617469846002153
:103ED0002A98FDF7C3F858B100212B98FDF7BEF8DA
:103EE00030B100212C98FDF7B9F8002840F0CE84BD
:103EF000A74C206800F100402946FCF71BFF8146D3
:103F000060683146FCF716FF01464846FCF708FE9C
:103F10008146A0683946FCF70DFF01464846FCF78C
:103F2000FFFD4FF07C51FCF705FF0A90DFF864922B
:103F3000D9F800002946FCF7FDFE82466068394644
:103F4000FCF7F8FE01465046FCF7ECFD8246A068FF
:103F50003146FCF7EFFE01465046FCF7E1FD4FF01D
:103F60007C51FCF7E7FE0B90D9F800003146FCF7D6
:103F7000E1FE824620683946FCF7DCFE01465046E9
:103F8000FCF7CEFD8246A0682946FCF7D3FE014629
:103F90005046FCF7C7FD4FF07C51FCF7CBFE0C9070
:103FA000D9F800003946FCF7C5FE074620683146BF
:103FB000FCF7C0FE01463846FCF7B4FD06466068D3
:103FC0002946FCF7B7FE01463046FCF7A9FD4FF045
:103FD0007C51FCF7AFFE0D9000214046FDF73EF806
:103FE00058B100212898FDF739F830B100212998FF
:103FF000FDF734F8002840F0EE8341464046FCF7D8
:1040000099FE044628990846FCF794FE014620468E
:10401000FCF788FD044629990846FCF78BFE01460B
:104020002046FCF77FFDFFF7A7FC0446014640460B
:10403000FCF780FE159021462898FCF77BFE169031
:1040400021462998FCF776FE17902A990846FCF736
:1040500071FE04462B990846FCF76CFE014620468B
:10406000FCF760FD04462C990846FCF763FE014608
:104070002046FCF757FDFFF77FFC044601462A98CF
:10408000FCF758FE814621462B98FCF753FE064666
:1040900021462C98FCF74EFE80463E4F386801467C
:1040A000FCF740FD4946FCF745FE054638680146E9
:1040B000FCF738FD03963146FCF73CFE0F9038685C
:1040C0000146FCF72FFD4146FCF734FE1090304CC2
:1040D00020680146FCF726FD4946FCF72BFE1190AF
:1040E00038680146FCF71EFD834620680146FCF750
:1040F00019FD079060680146FCF714FD0890A06860
:104100000146FCF70FFD129038680146FCF70AFDE6
:104110006168FCF70FFE189060680146FCF702FD2D
:10412000A168FCF707FE199038683968FCF702FEB1
:10413000064638682168FCF7FDFD0E903868616816
:10414000FCF7F8FD14903868A168FCF7F3FD1A90AD
:1041500020682168FCF7EEFD059020686168FCF797
:10416000E9FD1B902068A168FCF7E4FD09906068F8
:104170006168FCF7DFFD04906068A168FCF7DAFD78
:104180001C90A068A168FCF7D5FD824604E000BF42
:104190000802002008000020139631464846FCF72C
:1041A000C9FD0646A0680F99FCF7C4FD01463046DC
:1041B000FCF7B6FC064660681099FCF7BBFD0146AB
:1041C0003046FCF7AFFC064605994846FCF7B2FDC1
:1041D00001463046FCF7A6FC064607990398FCF713
:1041E000A9FD6168FCF7A6FD01463046FCF79AFC84
:1041F00006460799CDF818804046FCF79BFDA1685C
:10420000FCF798FD01463046FCF78CFC0646049905
:104210004846FCF78FFD01463046FCF781FC064618
:1042200051464846FCF786FD01463046FCF778FCCF
:104230008046A0682946FCF77DFD06461399039841
:10424000FCF778FD01463046FCF76CFC064620681A
:104250001099FCF76FFD01463046FCF761FC0646FD
:1042600060681199FCF766FD01463046FCF75AFC80
:10427000064605990398FCF75DFD01463046FCF7BC
:104280004FFC064604990398FCF754FD014630465E
:10429000FCF748FC064608990698FCF74BFDA16818
:1042A000FCF748FD01463046FCF73CFC064651460B
:1042B0000398FCF73FFD01463046FCF731FC06460B
:1042C00041464046FCF736FD804631463046FCF715
:1042D00031FD01464046FCF725FCFCF79DF800F057
:1042E000CFFDFCF7C9FB064605F100406168FCF70D
:1042F00021FD054620680F99FCF71CFD0146284664
:10430000FCF710FC05461399DDF818804046FCF7D1
:1043100011FD01462846FCF705FC0546A0681199E9
:10432000FCF708FD01462846FCF7FCFB054605990D
:104330004046FCF7FFFC01462846FCF7F1FB05462A
:1043400008990398FCF7F6FCA168FCF7F3FC01461A
:104350002846FCF7E7FB054604994046FCF7EAFCD3
:1043600001462846FCF7DCFB05465146CDF818808F
:104370004046FCF7DFFC01462846FCF7D3FB054628
:1043800031463046FCF7CEFB1D9029462846FCF707
:10439000C9FB1390089B03F10048DDF824C0614677
:1043A0006046FCF7BFFB1899FCF7BAFB1599FCF7C0
:1043B000B7FB0F9001464046FCF7BCFC8046DDF899
:1043C00038E071467046FCF7ADFB1999FCF7AAFB83
:1043D0001699FCF7A5FB10900799FCF7ABFC01467A
:1043E0004046FCF79FFB804660682946FCF7A2FC2C
:1043F000159004994FF07C50FCF792FB5146FCF766
:104400008FFB3146FCF796FC824614990998FCF71D
:1044100087FB2946FCF78EFC01465046FCF782FBE1
:104420004946FCF77DFB119001461598FCF782FC8C
:1044300001464046FCF774FB804606F10043A16844
:1044400015931846FCF776FC814620682946FCF750
:1044500071FC01464846FCF765FB81461A991B989A
:10446000FCF75EFB3146FCF765FC82461C990E9812
:10447000FCF758FB2946FCF75DFC01465046FCF76B
:1044800051FB0399FCF74CFB039001464846FCF7AF
:1044900051FC01464046FCF745FB804660683146CA
:1044A000FCF748FC814609991498FCF73BFB314620
:1044B000FCF740FC824605994FF07C50FCF730FB3E
:1044C0000499FCF72DFB2946FCF734FC01465046C5
:1044D000FCF728FB0699FCF723FB069001464846AB
:1044E000FCF728FC01464046FCF71CFB099012999A
:1044F0000F98FCF71FFC804659461098FCF71AFCF1
:1045000001464046FCF70EFB804620684FF0814193
:10451000FCF710FC8246059A11461046FCF702FB98
:1045200001464FF07E50FCF7FBFA8146049B19468A
:104530001846FCF7F7FA01464846FCF7F1FA1799D6
:10454000FCF7EEFA814601465046FCF7F3FB0146C4
:104550004046FCF7E5FA8046A0682946FCF7EAFBEE
:1045600001461198FCF7E6FB01464046FCF7DAFAF3
:10457000804660683146FCF7DDFB82463868294694
:10458000FCF7D8FB01465046FCF7CCFA01460398ED
:10459000FCF7D0FB01464046FCF7C4FA8046A06811
:1045A0003146FCF7C7FB824620681399FCF7C2FB33
:1045B00001465046FCF7B4FA01460698FCF7BAFBF0
:1045C00001464046FCF7AEFA80460BF100410F98D9
:1045D000FCF7B0FB824612991098FCF7ABFB014642
:1045E0005046FCF79FFA824660684FF08141FCF725
:1045F000A1FB01464846FCF79DFB01465046FCF7EF
:104600008FFA82461D9B03F1004961684846FCF71A
:1046100091FB834638682946FCF78CFB01465846D7
:10462000FCF77EFA01461198FCF784FB01465046E0
:10463000FCF778FA074620683146FCF77BFB824698
:10464000A0682946FCF776FB01465046FCF76AFA5B
:1046500001460398FCF76EFB01463846FCF762FA08
:104660008246904C20683146FCF764FB83468E4FAF
:1046700078681399FCF75EFB01465846FCF750FA40
:1046800001460698FCF756FB01465046FCF74AFAED
:10469000824607990F98FCF74DFB834608991098BE
:1046A000FCF748FB01465846FCF73CFA8346B968DC
:1046B0004846FCF73FFB814638682946FCF73AFB41
:1046C00001464846FCF72EFA01461198FCF732FBEA
:1046D00001465846FCF726FA814621681598FCF7F2
:1046E00029FB834678682946FCF724FB0146584697
:1046F000FCF718FA01460398FCF71CFB01464846F4
:10470000FCF710FA054638683146FCF713FB014602
:104710000698FCF70FFB01462846FCF703FA06460D
:10472000099F39463846FCF705FB05464146404699
:10473000FCF700FB01462846FCF7F4F90546514614
:104740005046FCF7F7FA01462846FCF7EBF9054618
:1047500031463046FCF7EEFA01462846FCF7E2F90E
:10476000FFF70AF9054601463846FCF7E3FA074623
:1047700029464046FCF7DEFA804629465046FCF7BB
:10478000D9FA814629463046FCF7D4FA05466068D6
:104790003946FCF7CFFA01460A98FCF7C1F90A90AE
:1047A00060684146FCF7C6FA01460B98FCF7B8F979
:1047B0000B9060684946FCF7BDFA01460C98FCF77F
:1047C000AFF90C9060682946FCF7B4FA01460D98E1
:1047D000FCF7A6F90D9035490A98FCF7ABFA314D74
:1047E0002968FCF79FF9286030490B98FCF7A2FA7A
:1047F0002D4C2168FCF796F920602C490C98FCF7A9
:1048000099FA6168FCF78EF9606028490D98FCF709
:1048100091FAA168FCF786F9A06028682968FCF77E
:1048200089FA064620682168FCF784FA014630467A
:10483000FCF778F9064660686168FCF77BFA014688
:104840003046FCF76FF90646A068A168FCF772FADB
:1048500001463046FCF766F9FFF78EF806462868F1
:104860003146FCF767FA286020683146FCF762FAA7
:10487000206060683146FCF75DFA6060A0683146F0
:10488000FCF758FAA0601FB0BDE8F08F299B019398
:10489000289B009343463A4631462846FFF78AF85C
:1048A000F1E700BF08000020080200200AD7233CDF
:1048B00030B589B0002404940594069407941D4BE8
:1048C0009A6942F010029A619A6902F0100200920D
:1048D000009A9A6942F020029A619A6902F02002D5
:1048E0000192019A9A6942F008029A619A6902F06B
:1048F00008020292029A9A6942F004029A619B6944
:1049000003F004030393039B0B4D22464FF4005125
:104910002846FCF7B5FD4FF400530493012305939B
:1049200006940223079304A92846FCF7BDFC09B0AE
:1049300030BD00BF001002400010014008B50B4818
:104940000B4B03600B4B436000238360C3604FF449
:104950008042026143618361C3610362FCF79AFF95
:1049600000B908BD00F0E8F8FBE700BF88020020AE
:1049700000540040A086010010B586B000230293C9
:104980000393049305930268114B9A4201D006B039
:1049900010BD104CA36943F00803A361A36903F0A1
:1049A00008030093009BC023029312230393032365
:1049B000059302A90848FCF777FCE36943F4001368
:1049C000E361E36903F400130193019BDFE700BF98
:1049D0000054004000100240000C014008B502687D
:1049E000084B9A4200D008BDFEF762FC064B1868DF
:1049F000064B1968064B1A68064B1B68FEF7E4FE67
:104A0000F1E700BF00040040080000200802002079
:104A10000C0200201002002030B591B00024089450
:104A200009940B940C9401940294039404940594B7
:104A3000012206924FF4803307930A9202250D95C6
:104A40000E934FF4E0130F9306A8FDF7F7FA0F2328
:104A50000193029503944FF48063049305942946CF
:104A600001A8FDF72BFD11B030BD000000B59FB0CF
:104A7000FCF778FBFFF7D0FFFFF71AFFFFF75EFFA9
:104A800000F02EF900F0D4F8FEF730FB642200218C
:104A900005A800F0F1FFFEF711F97120FEF7E6FA24
:104AA000012827D0FEF724FD1C48FDF70EFE1C4B05
:104AB0001868FBF7B1FC04460D461A4B1868FBF763
:104AC000ABFCCDE90201184B1868FBF7A5FCCDE95A
:104AD000000122462B46154905A801F025FC4FF49C
:104AE0007A73642205A91248FEF778F8C820FCF70B
:104AF0005DFBDCE7FEF7D6F90E4C01224FF40051C6
:104B00002046FCF7BDFC4FF47A70FCF74FFB002207
:104B10004FF400512046FCF7B3FCC3E7F802002035
:104B2000A00300208C0300209C030020B87B000819
:104B300048020020001001407047000082B00E4B78
:104B40009A6942F001029A619A6902F001020092A8
:104B5000009ADA6942F08052DA61DB6903F080532F
:104B60000193019B054A536823F0E06343F000730F
:104B7000536002B0704700BF0010024000000140C7
:104B80007047FEE7FEE7FEE7FEE7704770477047B5
:104B900008B5FCF7F9FA08BD08B50248FDF7AAFD0B
:104BA00008BD00BFF802002008B503460B4A126892
:104BB00042B10A4A106803446A46934206D8074A3B
:104BC000136008BD054A06491160F2E700F02AFFAC
:104BD0000C2303604FF0FF30F3E700BF24020020F6
:104BE000C00300200F4B1A6842F001021A60596896
:104BF0000D4A0A405A601A6822F0847222F4803208
:104C00001A601A6822F480221A605A6822F4FE029E
:104C10005A604FF41F029A60044B4FF000629A6092
:104C2000704700BF001002400000FFF800ED00E0F8
:104C300000B587B000230293039304930593009378
:104C400001931548154A026041F61F424260836095
:104C50006322C26003618361FDF744FE98B906A92F
:104C60004FF4805341F8103D0B48FDF75FFE68B9E3
:104C700000230093019369460748FDF7C4FE40B93D
:104C800007B05DF804FBFFF757FFE8E7FFF754FFB5
:104C9000EEE7FFF751FFF3E7F802002000040040C1
:104CA00002680E4B9A4200D0704700B583B003F5FE
:104CB0000333DA6942F00202DA61DB6903F00203CE
:104CC0000193019B002211461D20FCF795FA1D203F
:104CD000FCF7C6FA03B05DF804FB00BF0004004017
:104CE00008B50A480A4B03604FF41653436000238B
:104CF0008360C36003610C2242618361C361FDF77D
:104D00003EFF00B908BDFFF717FFFBE74802002090
:104D10000048004010B586B000230293039304932B
:104D200005930268174B9A4201D006B010BD03F5F7
:104D3000E433DA6942F48022DA61DA6902F480222B
:104D40000092009A9A6942F008029A619B6903F006
:104D500008030193019B4FF48063029302230393A2
:104D600003230593084C02A92046FCF79DFA4FF453
:104D70000063029300230393049302A92046FCF7E7
:104D800093FAD2E700480040000C0140002103E004
:104D90000B4B5B58435004310A480B4B42189A4264
:104DA000F6D30A4A02E0002342F8043B084B9A4239
:104DB000F9D3FFF717FF00F03BFEFFF757FE7047F0
:104DC000987E000800000020EC010020EC0100208B
:104DD000BC030020FEE700002DE9F0438BB0044641
:104DE0000D4600F0ADF8DFF89080064698F90030E7
:104DF0000F4601332BD022462B4620462946FBF78F
:104E0000FDFD814618BB2046294600F0FFFD00222B
:104E1000164BFBF7E9FDD0B10122154B1548CDE942
:104E20000023CDF82090CDE90445CDE9024500F0FE
:104E3000F3FD98F90030CDE90601022B0CD068464D
:104E400000F0E8FD40B1089B5BB9DDE9066730463C
:104E500039460BB0BDE8F08300F0E4FD2123036088
:104E6000F1E700F0DFFD089B0360EEE70000F03F94
:104E7000E07B0008DC7B00081800002000F09CBAF2
:104E80002DE9F04F8BB004460D4600F06FFB294B27
:104E9000064693F900A00F46BAF1FF3F12D0224612
:104EA0002B4620462946FBF7A9FD834650B94FF013
:104EB00000084FF000092046294642464B46FBF7C2
:104EC00075FD20B9304639460BB0BDE8F08F0122A0
:104ED000194BCDF820B0CDE90445CDE90245CDE927
:104EE0000023BAF1000F17D042464B4640464946D0
:104EF000FBF714FCBAF1020FCDE906010ED100F068
:104F000091FD21230360089B73B9DDE906673046F4
:104F100039460BB0BDE8F08FCDE90689684600F050
:104F200079FD0028EFD1EAE700F07CFD089B0360E3
:104F3000EBE700BF18000020E87B0008000000003D
:104F40002DE9F04FB24B21F000479F4287B00D464C
:104F5000044615DD034607F1404707F580173B433C
:104F600026D002460B46FBF7F7F80B460246FBF746
:104F7000D5FB04460B462046194607B0BDE8F08F26
:104F8000A44B0E469F422EDCB7F1795F80F24A8136
:104F900083A3D3E90023FBF7E1F800229E4BFBF744
:104FA00023FD00B32B462046194607B0BDE8F08F1D
:104FB0007DA3D3E90023FBF787FA7DA3D3E9002380
:104FC00006460F4620462946FBF77EFA02460B4668
:104FD00030463946FBF7C2F804460B4620461946D0
:104FE00007B0BDE8F08F2046294600F00FFD0246CD
:104FF0000B4600208849FBF7AFF80022874BFBF7F0
:1050000063FA6DA3D3E9002304460D46FBF75CFA6F
:105010006BA3D3E90023FBF7A1F822462B46FBF74D
:1050200053FA69A3D3E90023FBF796F822462B46EF
:10503000FBF74AFA66A3D3E90023FBF78FF8224671
:105040002B46FBF741FA64A3D3E90023FBF784F86E
:1050500022462B46FBF738FA61A3D3E90023FBF77E
:105060007DF822462B46FBF72FFA5FA3D3E90023F6
:10507000CDE9000120462946FBF726FA5CA3D3E9D7
:105080000023FBF769F822462B46FBF71DFA5AA3CB
:10509000D3E90023FBF762F822462B46FBF714FA0C
:1050A00057A3D3E90023FBF757F822462B46FBF71B
:1050B0000BFA594B0022FBF751F882468B462046EB
:1050C0002946CDE902AB00F051FA554B80469F428C
:1050D000894600F31C8102460B46FBF73FF8DDE9E9
:1050E0000223CDE90401DDE90001FBF717FB0246CD
:1050F0000B46DDE90401FBF7E7F94FF0000ACDE9C3
:10510000000152464B4650464946FBF7DDF9024640
:105110000B4620462946FBF71FF8524604460D462B
:105120004B4640464946FBF719F802460B462046D7
:105130002946FBF7F3FA02460B46FBF70FF8024647
:105140000B461BA1D1E90001FBF706F802460B460E
:10515000DDE90001FBF700F8524604460D464B46D8
:1051600050464946FAF7FAFF02460B4626A1D1E916
:105170000001FAF7F1FF02460B4620462946FAF7EE
:10518000EBFF0B46024620A1D1E90001FAF7E4FF4C
:1051900004460B46002E3FF7EEAE03F10043EAE66D
:1051A0009C7500883CE4377E182D4454FB21F93F60
:1051B000075C143326A6913C09F7FD0DE13D023F43
:1051C00088B20175E0EF493F3B8F68B52882A43F64
:1051D0005544880E55C1C93F7D6FEB0312D6D43FAD
:1051E000555555555555C53F82922EB1C5B8B33F5B
:1051F00059018D1B6C06E63FC88A599CE52A004080
:105200004B2D8A1C273A0340182D4454FB21E93FBB
:10521000FFFFEF3FFFFFDF3F0000F03F0000E03FF8
:105220003233EF3F02460B46FBF74EF948A3D3E972
:10523000002306460F46FBF747F947A3D3E90023AF
:10524000FAF78CFF32463B46FBF73EF944A3D3E91D
:105250000023FAF781FF32463B46FBF735F942A3BC
:10526000D3E90023FAF77AFF32463B46FBF72CF9E5
:105270003FA3D3E90023FAF76FFF32463B46FBF723
:1052800023F93DA3D3E90023FAF768FF32463B46F2
:10529000FBF71AF93AA3D3E9002380468946304642
:1052A0003946FBF711F938A3D3E90023FAF754FF85
:1052B00032463B46FBF708F935A3D3E90023FAF75A
:1052C0004DFF32463B46FBF7FFF833A3D3E90023FB
:1052D000FAF742FF32463B46FBF7F6F80022344B22
:1052E000FAF73CFF02460B4640464946FBF716FAE2
:1052F00022462B46FBF7E8F822462B46FAF72EFF0C
:1053000004460B462046194607B0BDE8F08F5246CA
:10531000DDE900015B46FBF701FA42464B46FBF72D
:10532000D3F842464B46FAF719FF02460B46FAF706
:1053300015FF1BA3D3E90023FAF70EFF0B46024625
:1053400019A1D1E90001FAF707FF04460B4621E74E
:1053500009F7FD0DE13D023F88B20175E0EF493FDD
:105360003B8F68B52882A43F5544880E55C1C93F7C
:105370007D6FEB0312D6D43F555555555555C53F56
:1053800082922EB1C5B8B33F59018D1B6C06E63F22
:10539000C88A599CE52A00404B2D8A1C273A0340B5
:1053A000075C143326A6913C182D4454FB21F93F89
:1053B0000000F03F000000002DE9F84F5442144374
:1053C00023F00048684E48EAD474B44284460F463D
:1053D0001FD84442044321F0004A4AEAD474B4423C
:1053E0008B4616D803F1404404F5801414439E46BE
:1053F0003DD09C1704F0020444EAD1745AEA00013B
:105400000FD1022C50D0032C3CD145A1D1E9000191
:1054100005E01046194662463B46FAF79FFEBDE896
:10542000F88F58EA020126D0B0452DD0B24522D0DF
:10543000AAEB08084FEA2858B8F13C0F38DC002BDB
:105440003ADA18F13C0F37DA00200021012C49D05C
:10545000022C3AD0002CE2D033A3D3E90023FAF790
:105460007BFE33A3D3E90023FAF776FED7E7BDE846
:10547000F84F00F03DB9BBF1000F11DB2EA1D1E9CF
:105480000001CCE73946CAE7C2452FD0022C0BD029
:10549000032CBAD0012C4FF0000031D00021BEE720
:1054A00027A1D1E90001BAE721A1D1E90001B6E7BE
:1054B00021A1D1E90001C9E760463946FBF72EF981
:1054C00000F0A4FA00F014F9C0E717A3D3E9002311
:1054D000FAF742FE02460B4615A1D1E90001FAF7A0
:1054E0003BFE9CE701F10043194698E7022C12D0DD
:1054F000032C0CD0012C06D013A1D1E900018EE7BA
:105500004FF000418BE712A1D1E9000187E712A11A
:10551000D1E9000183E712A1D1E900017FE700BFD3
:10552000182D4454FB2109C0075C143326A6A13C66
:10553000182D4454FB210940182D4454FB21F93FF8
:10554000182D4454FB21F9BF182D4454FB21E93F89
:10555000182D4454FB21E9BFD221337F7CD902C0EE
:10556000D221337F7CD902400000F07F5F4A2DE9D1
:10557000F0418A430D46074600F0948000290B460F
:105580000446064654DD0F1500F0A780C3F313034D
:10559000A7F2FF3743F48013F20FF80702EB43033F
:1055A0004FEA460503D5ED0F05EB4303B500002692
:1055B0001622B4464FF400117F100CEB0100984204
:1055C0004FEAD5744FEA450503DC1B1A00EB010CCA
:1055D0000E44013A04EB43034FEA5101EDD110466A
:1055E000964620244FF0004209E052D05B00013C77
:1055F00003EBD5734FEA52024FEA450537D06345B6
:1056000002EB0E01F1DD002901EB020E0ADBE046A0
:10561000A3EB0C03A94288BF03F1FF33C4466D1A04
:105620001044E3E7BEF1000FF1DB0CF10108EFE7F6
:1056300021F00042024329D0002945D10146CA0A7F
:10564000153B4905002AFAD012F4801001D048E039
:1056500030465200D40200F10106F9D5C6F120040B
:1056600001FA06F6E1401F1A41EA02038EE72B43D6
:1056700024D14408731003F17F53F20703F500139C
:1056800048BF44F0004403EB075127463846BDE8C5
:10569000F081A942AAD8002901EB020EC2DB98468C
:1056A0000023BBE702460B46FAF70EFF3A462B46AD
:1056B000FAF754FD07463846BDE8F081411C16BF95
:1056C000421C01365408D5E70246FAF745FD02466A
:1056D0000B46FBF723F80746D8E71A4621463B4618
:1056E000B2E70E4620244FF0FF30BBE70000F07F0A
:1056F0002DE9F84FB84B21F000469E420D468A46F0
:1057000004460EDDB54B9E4200F3B08000F0AB8046
:10571000B34BB449B448BAF1000FC8BF1946BDE84D
:10572000F88FB24B9E4200F3B980A3F1DE739E4224
:1057300040F3A4804FF0FF3B22462B4620462946EB
:10574000FAF7C2FE02460B4680468946FAF7BCFECF
:1057500089A3D3E9002306460F46FAF7B5FE88A3CE
:10576000D3E90023FAF7FAFC32463B46FAF7ACFEDF
:1057700085A3D3E90023FAF7F1FC32463B46FAF75A
:10578000A3FE83A3D3E90023FAF7E8FC32463B46A5
:10579000FAF79AFE80A3D3E90023FAF7DFFC32463A
:1057A0003B46FAF791FE7EA3D3E90023FAF7D6FC35
:1057B00042464B46FAF788FE7BA3D3E90023804696
:1057C000894630463946FAF77FFE79A3D3E90023AC
:1057D000FAF7C2FC32463B46FAF776FE76A3D3E9E7
:1057E0000023FAF7B9FC32463B46FAF76DFE74A384
:1057F000D3E90023FAF7B0FC32463B46FAF764FEE1
:1058000071A3D3E90023FAF7A7FC32463B46FAF727
:105810005BFE02460B4640464946FAF79FFC22468D
:105820002B46FAF751FEBBF1FF3F02460B465CD018
:105830006F4B4FEACB0B5B44D3E90023FAF78CFCA8
:1058400022462B46FAF788FC6A4E0246B3440B46C2
:10585000DBE90001FAF780FCBAF1000F0CDA01F184
:105860000041BDE8F88F00283FF452AF22462046A1
:105870002B462946FAF772FCBDE8F88F54A3D3E90A
:105880000023FAF76BFC00225B4BFBF7ADF8002816
:105890003FF450AF20462946BDE8F88F00F0B6F837
:1058A000564B04469E420D4625DCA3F550239E42EE
:1058B0004ADC02460B46FAF751FC00224E4BFAF73F
:1058C0004BFC002206460F464FF0804320462946F7
:1058D000FAF744FC02460B4630463946FAF71EFFFB
:1058E0004FF0000B04460D4626E720462946FAF7FE
:1058F00033FCBDE8F88F424B9E421ADC0022414B3C
:10590000FAF72AFC002206460F463E4B204629465F
:10591000FAF7DAFD0022384BFAF720FC02460B4674
:1059200030463946FAF7FAFE4FF0020B04460D46B0
:1059300002E702460B4600203349FAF7EFFE4FF02C
:10594000030B04460D46F7E600222B4BFAF704FC46
:10595000002206460F46284B20462946FAF7FEFB52
:1059600002460B4630463946FAF7D8FE4FF0010B97
:1059700004460D46E0E600BF11DA22E33AAD903F5F
:10598000EB0D76244B7BA93F513DD0A0660DB13F76
:105990006E204CC5CD45B73FFF8300922449C23FDE
:1059A0000D5555555555D53F2F6C6A2C44B4A2BFA3
:1059B0009AFDDE522DDEAD3F6D9A74AFF2B0B33F6B
:1059C000711623FEC671BC3FC4EB98999999C93FE3
:1059D0009C7500883CE4377EFFFF0F440000F07F99
:1059E000FB21F93FFB21F9BF182D4454FFFFDB3F9A
:1059F000107C0008F07B00080000F03FFFFFF23F42
:105A0000FF7F03400000F83F0000F0BF21F000439B
:105A1000194670470020704700200149704700BFB9
:105A20000000F87F014B1868704700BF1C00002081
:105A300070B500250C4E0D4CA41BA410A54209D135
:105A400002F060F800250A4E0A4CA41BA410A542DF
:105A500005D170BD56F8253098470135EEE756F868
:105A6000253098470135F2E7907E0008907E0008C7
:105A7000907E0008947E000803460244934200D1C1
:105A8000704703F8011BF9E7002B2DE9F0471E468C
:105A9000BBBF03F100431E4600232D2388B0149F93
:105AA000DDE9121A27F02007462F1446109D0B70CF
:105AB00004D0452F00D10135022300E0032307AABB
:105AC000049206AACDE902A2CDE90035224633466A
:105AD00000F0DAFC472F804602D1119BDB0726D568
